:020000040000fa
:080000000002040000000000f2
:020000040000fa
:040008008e03000063
:020000040000fa
:04000c00a00300004d
:020000040000fa
:04001000b803000031
:020000040000fa
:04001400960300004f
:020000040000fa
:04001800a803000039
:020000040000fa
:04001c00b00300002d
:020000040000fa
:04002000c003000019
:020000040000fa
:0400240000060000d2
:020000040000fa
:0400280000060000ce
:020000040000fa
:04002c0000060000ca
:020000040000fa
:0400300000060000c6
:020000040000fa
:04003400580300006d
:020000040000fa
:0400380000060000be
:020000040000fa
:04003c0000060000ba
:020000040000fa
:0400400000060000b6
:020000040000fa
:04004400ca050000e9
:020000040000fa
:0400480000060000ae
:020000040000fa
:04004c0000060000aa
:020000040000fa
:0400500000060000a6
:020000040000fa
:040054006404000040
:020000040000fa
:04005800020400009e
:020000040000fa
:04005c001603000087
:020000040000fa
:040060000006000096
:020000040000fa
:040064000006000092
:020000040000fa
:04006800000600008e
:020000040000fa
:04006c00000600008a
:020000040000fa
:040070000006000086
:020000040000fa
:040074000006000082
:020000040000fa
:04007800000600007e
:020000040000fa
:04007c00000600007a
:020000040000fa
:040080000006000076
:020000040000fa
:040084000006000072
:020000040000fa
:04008800000600006e
:020000040000fa
:04008c00000600006a
:020000040000fa
:040090000006000066
:020000040000fa
:040094000006000062
:020000040000fa
:04009800000600005e
:020000040000fa
:04009c00000600005a
:020000040000fa
:0400a000480500000f
:020000040000fa
:0400a400e60400006e
:020000040000fa
:0400a800000600004e
:020000040000fa
:0400ac00000600004a
:020000040000fa
:0400b0000006000046
:020000040000fa
:0400b4000006000042
:020000040000fa
:0400b800000600003e
:020000040000fa
:0400bc00000600003a
:020000040000fa
:0400c0000006000036
:020000040000fa
:0400c4000006000032
:020000040000fa
:0400c800000600002e
:020000040000fa
:0400cc00000600002a
:020000040000fa
:0400d0000006000026
:020000040000fa
:0400d4000006000022
:020000040000fa
:0400d800000600001e
:020000040000fa
:0400dc00000600001a
:020000040000fa
:0400e0000006000016
:020000040000fa
:0400e4000006000012
:020000040000fa
:0400e800000600000e
:020000040000fa
:0400ec00000600000a
:020000040000fa
:0400f0000006000006
:020000040000fa
:0400f4000006000002
:020000040000fa
:0400f80000060000fe
:020000040000fa
:0400fc0000060000fa
:020000040000fa
:0401000000060000f5
:020000040000fa
:0401040000060000f1
:020000040000fa
:0401080000060000ed
:020000040000fa
:04010c0000060000e9
:020000040000fa
:0401100000060000e5
:020000040000fa
:0401140000060000e1
:020000040000fa
:0401180000060000dd
:020000040000fa
:04011c0000060000d9
:020000040000fa
:0401200000060000d5
:020000040000fa
:0401240000060000d1
:020000040000fa
:0401280000060000cd
:020000040000fa
:04012c00d0040000fb
:020000040000fa
:04013000b405000012
:020000040000fa
:0401340000060000c1
:020000040000fa
:0401380000060000bd
:020000040000fa
:04013c0000060000b9
:020000040000fa
:0401400000060000b5
:020000040000fa
:0401440000060000b1
:020000040000fa
:0401480000060000ad
:020000040000fa
:04014c0000060000a9
:020000040000fa
:0401500000060000a5
:020000040000fa
:0401540000060000a1
:020000040000fa
:04015800000600009d
:020000040000fa
:04015c000006000099
:020000040000fa
:040160000006000095
:020000040000fa
:040164000006000091
:020000040000fa
:04016800000600008d
:020000040000fa
:04016c000006000089
:020000040000fa
:040170000006000085
:020000040000fa
:040174000006000081
:020000040000fa
:04017800000600007d
:020000040000fa
:04017c000006000079
:020000040000fa
:040180000006000075
:020000040000fa
:040184000006000071
:020000040000fa
:04018800000600006d
:020000040000fa
:04018c000006000069
:020000040000fa
:040190000006000065
:020000040000fa
:040194000006000061
:020000040000fa
:04019800000600005d
:020000040000fa
:04019c000006000059
:020000040000fa
:0401a0000006000055
:020000040000fa
:0401a4000006000051
:020000040000fa
:0401a800000600004d
:020000040000fa
:0401ac000006000049
:020000040000fa
:0401b0000006000045
:020000040000fa
:0401b4000006000041
:020000040000fa
:0401b800000600003d
:020000040000fa
:0401bc000006000039
:020000040000fa
:0401c0000006000035
:020000040000fa
:0401c4000006000031
:020000040000fa
:0401c800000600002d
:020000040000fa
:0401cc000006000029
:020000040000fa
:0401d0000006000025
:020000040000fa
:0401d4000006000021
:020000040000fa
:0401d800000600001d
:020000040000fa
:0401dc000006000019
:020000040000fa
:0401e0000006000015
:020000040000fa
:0401e4000006000011
:020000040000fa
:0401e800000600000d
:020000040000fa
:0401ec000006000009
:020000040000fa
:0401f0000006000005
:020000040000fa
:0401f4000006000001
:020000040000fa
:0401f80000060000fd
:020000040000fa
:0401fc0000060000f9
:020000040000fa
:0402000000060000f4
:020000040000fa
:0402040000060000f0
:020000040000fa
:0402080000060000ec
:020000040000fa
:04020c0000060000e8
:020000040000fa
:0402100000060000e4
:020000040000fa
:0402140000060000e0
:020000040000fa
:0402180000060000dc
:020000040000fa
:04021c0000060000d8
:020000040000fa
:0402200000060000d4
:020000040000fa
:0402240000060000d0
:020000040000fa
:0402280000060000cc
:020000040000fa
:04022c0000060000c8
:020000040000fa
:0402300000060000c4
:020000040000fa
:0402340000060000c0
:020000040000fa
:0402380000060000bc
:020000040000fa
:04023c0000060000b8
:020000040000fa
:0402400000060000b4
:020000040000fa
:0402440000060000b0
:020000040000fa
:0402480000060000ac
:020000040000fa
:04024c0000060000a8
:020000040000fa
:0402500000060000a4
:020000040000fa
:0402540000060000a0
:020000040000fa
:04025800000600009c
:020000040000fa
:04025c000006000098
:020000040000fa
:040260000006000094
:020000040000fa
:040264000006000090
:020000040000fa
:04026800000600008c
:020000040000fa
:04026c000006000088
:020000040000fa
:040270000006000084
:020000040000fa
:040274000006000080
:020000040000fa
:04027800000600007c
:020000040000fa
:04027c000006000078
:020000040000fa
:040280000006000074
:020000040000fa
:040284000006000070
:020000040000fa
:04028800000600006c
:020000040000fa
:04028c000006000068
:020000040000fa
:040290000006000064
:020000040000fa
:040294000006000060
:020000040000fa
:04029800000600005c
:020000040000fa
:04029c000006000058
:020000040000fa
:0402a0000006000054
:020000040000fa
:0402a4000006000050
:020000040000fa
:0402a800000600004c
:020000040000fa
:0402ac000006000048
:020000040000fa
:0402b0000006000044
:020000040000fa
:0402b4000006000040
:020000040000fa
:0402b800000600003c
:020000040000fa
:0402bc000006000038
:020000040000fa
:0402c0000006000034
:020000040000fa
:0402c4000006000030
:020000040000fa
:0402c800000600002c
:020000040000fa
:0402cc000006000028
:020000040000fa
:0402d0000006000024
:020000040000fa
:0402d4000006000020
:020000040000fa
:0402d800000600001c
:020000040000fa
:0402dc000006000018
:020000040000fa
:0402e0000006000014
:020000040000fa
:0402e4000006000010
:020000040000fa
:0402e800000600000c
:020000040000fa
:0402ec000006000008
:020000040000fa
:0402f0000006000004
:020000040000fa
:0402f4000006000000
:020000040000fa
:0402f80000060000fc
:020000040000fa
:0402fc0000060000f8
:020000040000fa
:0403000000060000f3
:020000040000fa
:0403040000060000ef
:020000040000fa
:0403080000060000eb
:020000040000fa
:04030c0000060000e7
:020000040000fa
:0403100000060000e3
:020000040000fa
:10040000af0721000eff24000e018800000000004d
:10041000000020000000e000020032000001200087
:100420002002880014000700f70107000000e00028
:1004300003003a00a02e2100010020000200370036
:100440000000200001002000810f70000100320038
:100450000f000700000020000000e0000200320052
:1004600000000200000000009813020000000000dd
:100470000040da000000fe00002020000000e00044
:1004800002003200002020009001880000000600d9
:10049000a1028800800478000000eb001f003700f4
:1004a000e284440054a0b4009905ba00e2844400f8
:1004b00054a0b4009906ba00e284440054a0b400e9
:1004c0000006eb00476fde00fd07b200ae018800ba
:1004d000636ce10003003a000ad801000000eb0061
:1004e0000e003700606ce10008003a00004deb00a0
:1004f0000a05e800020039003420ec000af0a000f0
:100500008b05e900f9ff3e00040037006168e10057
:10051000010032000086eb000b00070019c7ba008b
:100520000e04e0001905ba0003003a000a00e000da
:10053000dbff3a0000000600fe07b200ae028800b2
:100540008a047800f5ff37000cd0a300e20f4d00bd
:100550001c00390089027800354dba000a05e80010
:10056000020039003420ec000af0a0008b05e900fd
:100570000f003200254dba000a05e80002003900dc
:100580003420ec000af0a0008b05e90008003200de
:100590000c00e0000600320015cdba000a05e800a4
:1005a000020039003420ec000af0a0008b05e900bd
:1005b0008984e80054a0b4000b00e000e2ff3a0098
:1005c000000006009902ba00055d78008b05e9007d
:1005d000f7ff3200c82ade00055d78008b05e900d0
:1005e000f3ff32000c00e000f1ff320019ddba0029
:1005f000eeff37004414040000000000bc100400ab
:100600000000000052080400000000007008040010
:1006100000000000620b040000000000800b0400da
:10062000000000007a110400000000003600f8000d
:10063000809fbe00829fbe00849fbe00869fbe003a
:100640003200f8003400f80010002000a0018800fb
:100650000020200090018800000000000000fa0047
:100660000140800000002200008060000000e000e7
:1006700006003200008180000000e000020032002d
:10068000008180000000010001a8a9000080fa009c
:100690003400f9003200f9004f03be004f02be00e3
:1006a0004f01be004f00be003600f90000400600ba
:1006b0003600f800809fbe00829fbe00849fbe006f
:1006c000869fbe000000fa00108180000000e0005c
:1006d000020032001081800000000100700721003c
:1006e000104078008040e800700721000148780041
:1006f0006007210011c0b300014878000068a9001c
:100700000080fa004f03be004f02be004f01be0042
:100710004f00be003600f900004006003600f80029
:10072000c028a9000000eb00700807003600f800a0
:1007300072080700c048a900100020006b080700dd
:100740003600f800c068a9002000200067080700f4
:100750003600f800c088a9003000200063080700b8
:100760003600f800c0a8a900400020005f0807007c
:100770003600f800c608a900700020005b080700da
:100780003600f80021468000001020000080600044
:100790000000e00003003200c508a900c0002000ee
:1007a00052080700214680000000280000806000f9
:1007b0000000e00003003200c5e8a900800020002e
:1007c0004a080700214680000002200000806000e7
:1007d0000000e00003003200c4a8a900900020003f
:1007e0004208070020468000700060000000e00022
:1007f00003003200c488a900a00020003b080700c5
:10080000ffff37003600f800809fbe00829fbe00c9
:10081000849fbe00869fbe000000fa0050808000ca
:100820000000e00002003200508080000000010063
:100830003180800020808000808f500002003a00cc
:100840002188a900190037000188a900100037008d
:1008500030808000904078008180fb00211188006a
:100860000000e80030808800318080001005210001
:10087000808f500002003a00800421003080880000
:100880003180800020808000808f50000600320080
:100890001111800000202000008060000000e000b6
:1008a000ebff320001003700000000000080fa007a
:1008b0004f03be004f02be004f01be004f00be00fe
:1008c0003600f900004006003600f800809fbe00a8
:1008d000829fbe00849fbe00869fbe000000fa007b
:1008e000608080000000e000020032006080800034
:1008f000000001000168a9001e0037000080800090
:10090000311180008140780001487800018080002a
:1009100090052100808f5000090032000080800087
:100920008000e80010808000808f500004003200ba
:10093000008080000000e800008088000d00370083
:100940000180800090052100808f500007003a0050
:100950001180800010052100808f500003003200bc
:1009600010052100008088000200370010c0b3008d
:1009700008f0b70010118000610060000000e00086
:10098000deff3a000080fa004f03be004f02be00b7
:100990004f01be004f00be003600f90000400600c7
:1009a000801f78000000fa001011800062006000d3
:1009b0000000e000010032002222a9000828a9005e
:1009c0000080fa004f007800004006003600f80072
:1009d000809fbe00829fbe00849fbe00869fbe0097
:1009e0000000fa00c08080000000e0000200320039
:1009f000c080800000000100a18080009080800005
:100a0000808f500002003a0023e8a9001900370047
:100a100003e8a90010003700a08080009040780013
:100a20008180fb00a11188000000e800a080880000
:100a3000a180800030062100808f500002003a0023
:100a4000a0052100a0808800a18080009080800007
:100a5000808f50000600320091118000002020009d
:100a6000008060000000e000ebff32000100370072
:100a7000000000000080fa004f03be004f02be00dd
:100a80004f01be004f00be003600f90000400600d6
:100a90003600f800809fbe00829fbe00849fbe008b
:100aa000869fbe000000fa00d08080000000e000b9
:100ab00002003200d08080000000010003c8a900bd
:100ac0001e00370070808000b111800081407800e6
:100ad0000148780071808000b0062100808f5000ae
:100ae00009003200708080008000e8008080800073
:100af000808f500004003200708080000000e80009
:100b0000708088000d00370071808000b0062100e1
:100b1000808f500007003a0081808000300621005d
:100b2000808f500003003200300621007080880062
:100b30000200370010c0b30016f0b700901180001b
:100b4000610060000000e000deff3a000080fa0073
:100b50004f03be004f02be004f01be004f00be005b
:100b60003600f90000400600801f78000000fa00ff
:100b700090118000620060000000e000010032007f
:100b80003222a9000848a9000080fa004f0078002e
:100b9000004006003600f800809fbe00829fbe0025
:100ba000849fbe00869fbe000000fa003081800056
:100bb0000000e000020032003081800000000100ef
:100bc00090072100104078008040e8009007210045
:100bd000014878008007210011c0b3000148780067
:100be00000e8a9000080fa004f03be004f02be00db
:100bf0004f01be004f00be003600f9000040060065
:0c0c00000040da000000fe0000000500cb
:020000040000fa
:100c0c0000000000c1c0000081c1000040010000d4
:100c1c0001c30000c00300008002000041c20000bc
:100c2c0001c60000c00600008007000041c700009c
:100c3c0000050000c1c5000081c400004004000094
:100c4c0001cc0000c00c0000800d000041cd000064
:100c5c00000f0000c1cf000081ce0000400e00004c
:100c6c00000a0000c1ca000081cb0000400b00004c
:100c7c0001c90000c00900008008000041c8000044
:100c8c0001d80000c01800008019000041d90000f4
:100c9c00001b0000c1db000081da0000401a0000dc
:100cac00001e0000c1de000081df0000401f0000bc
:100cbc0001dd0000c01d0000801c000041dc0000b4
:100ccc0000140000c1d4000081d5000040150000c4
:100cdc0001d70000c01700008016000041d60000ac
:100cec0001d20000c01200008013000041d30000ac
:100cfc0000110000c1d1000081d0000040100000a4
:100d0c0001f00000c03000008031000041f1000013
:100d1c0000330000c1f3000081f2000040320000fb
:100d2c0000360000c1f6000081f7000040370000db
:100d3c0001f50000c03500008034000041f40000d3
:100d4c00003c0000c1fc000081fd0000403d0000a3
:100d5c0001ff0000c03f0000803e000041fe00008b
:100d6c0001fa0000c03a0000803b000041fb00008b
:100d7c0000390000c1f9000081f800004038000083
:100d8c0000280000c1e8000081e9000040290000b3
:100d9c0001eb0000c02b0000802a000041ea00009b
:100dac0001ee0000c02e0000802f000041ef00007b
:100dbc00002d0000c1ed000081ec0000402c000073
:100dcc0001e40000c02400008025000041e5000083
:100ddc0000270000c1e7000081e60000402600006b
:100dec0000220000c1e2000081e30000402300006b
:100dfc0001e10000c02100008020000041e0000063
:100e0c0001a00000c06000008061000041a1000052
:100e1c0000630000c1a3000081a20000406200003a
:100e2c0000660000c1a6000081a70000406700001a
:100e3c0001a50000c06500008064000041a4000012
:100e4c00006c0000c1ac000081ad0000406d0000e2
:100e5c0001af0000c06f0000806e000041ae0000ca
:100e6c0001aa0000c06a0000806b000041ab0000ca
:100e7c0000690000c1a9000081a8000040680000c2
:100e8c0000780000c1b8000081b900004079000072
:100e9c0001bb0000c07b0000807a000041ba00005a
:100eac0001be0000c07e0000807f000041bf00003a
:100ebc00007d0000c1bd000081bc0000407c000032
:100ecc0001b40000c07400008075000041b5000042
:100edc0000770000c1b7000081b60000407600002a
:100eec0000720000c1b2000081b30000407300002a
:100efc0001b10000c07100008070000041b0000022
:100f0c0000500000c1900000819100004051000091
:100f1c0001930000c0530000805200004192000079
:100f2c0001960000c0560000805700004197000059
:100f3c0000550000c1950000819400004054000051
:100f4c00019c0000c05c0000805d0000419d000021
:100f5c00005f0000c19f0000819e0000405e000009
:100f6c00005a0000c19a0000819b0000405b000009
:100f7c0001990000c0590000805800004198000001
:100f8c0001880000c0480000804900004189000031
:100f9c00004b0000c18b0000818a0000404a000019
:100fac00004e0000c18e0000818f0000404f0000f9
:100fbc00018d0000c04d0000804c0000418c0000f1
:100fcc0000440000c1840000818500004045000001
:100fdc0001870000c04700008046000041860000e9
:100fec0001820000c04200008043000041830000e9
:100ffc0000410000c18100008180000040400000e1
:020000040000fa
:10100c000000fa002188a9002168a90080002000b6
:10101c00001188002222ef00f0012000401188000e
:10102c00800421003080880080042100208088000a
:10103c001005210010808800100521000080880018
:10104c000870ef00208520000700070000872000b3
:10105c00140007002168a80021e2a8002342a80080
:10106c000080fa00000006000200fa00000f780071
:10107c001e0078000000e00003003a0020852000ec
:10108c0050808800020037001e00780050808800d5
:10109c000080fa00000006000000fa000080fa0050
:1010ac00000006000200fa00000f78001e00780015
:1010bc000000e00003003a000087200060808800f8
:1010cc00020037001e007800608088000080fa0063
:1010dc00000006000000fa000080fa000000060084
:1010ec000200fa000040eb00004f78000000000006
:1010fc001180800000808000808f5000fcff320047
:10110c0010808000104f7800108080000000e800f4
:10111c001080880011808000a0052100808f500075
:10112c0002003a0010052100108088001e40780053
:10113c000080fa00000006000200fa00004f780060
:10114c00000000001c0007000004a2000004e000e6
:10115c00fcff3a00208080001e4878002080800030
:10116c000000e8002080880021808000100521000c
:10117c00808f500002003a008004210020808800fb
:10118c002188a8000080fa00000006000000fa0088
:10119c0011808000008080000080680000f0a700b3
:1011ac000000ea000000ea004f00de00004078007a
:1011bc000080fa00000006000400fa003180800074
:1011cc0011079800218080001e009000808f500035
:1011dc00060031009e0090002080800000805000ae
:1011ec000000e900000f7800050037009e00900019
:1011fc00208080000080500068004000000f7800c4
:10120c001e00780000f0a7000000ea000000ea00d1
:10121c004f00de00004078000080fa00000006005d
:10122c000000fa002180800030808000808f500008
:10123c0009003a00111180000010200000806000ad
:10124c0000f0a7000000ea000000ea004f00de00fa
:10125c0000407800010037000040eb000080fa00ed
:10126c00000006000400fa000180800011079800bd
:10127c00108080009e009000808f5000060031008e
:10128c009e0090001080800000805000690040009b
:10129c00000f7800040037009e0090001080800042
:1012ac0000805000000f7800f00f20009e007800a6
:1012bc00808f50000200360000c0eb0002003700a7
:1012cc001e007800004078000080fa000000060044
:1012dc000400fa0031808000110798002180800002
:1012ec001e009000808f5000060031009e00900080
:1012fc0020808000008050000000e900000f780082
:10130c00050037009e009000208080000080500077
:10131c0068004000000f7800f00f20009e0078005d
:10132c00808f50000200360000c0eb000200370036
:10133c001e007800004078000080fa0000000600d3
:10134c000800fa002007980031079800c5ff070035
:10135c000080fb00000f78003e0090009e0f5000b4
:10136c0002003100be009000010f78000000eb007d
:10137c00100798000900370059ff0700ae009000d5
:10138c00804878002e0090000000e80020079800ac
:10139c001e0090000000e800100798001e0090004e
:1013ac009e0f5000f4ff39001e0078000080fa00f8
:1013bc00000006000800fa0020079800310798008a
:1013cc00c3ff07000080fb00000f78003e00900078
:1013dc009e0f500002003100be009000010f7800fb
:1013ec000000eb0010079800090037002e00900059
:1013fc0010407800ae0090008100e80021079800b2
:10140c004dff07001e0090000000e8001007980038
:10141c001e0090009e0f5000f4ff39001e00780053
:10142c000080fa00000006000400fa000000eb0047
:10143c00000f78008bff070020479800a4ff0700df
:10144c00304798002e4090000080fb000000e00028
:10145c0003003200e90f5000030032000400370093
:10146c001e20a000040037001e00a0000200370060
:10147c001e10a000000000003e4090000080fb0009
:10148c000000e00003003200e90f500003003200be
:10149c00040037001e30a000020037001e40a000e0
:1014ac00000000001e0078000080fa00000006001a
:1014bc000400fa0010079800118080001e009000b4
:1014cc00008f4000020037009e007800698f5000aa
:1014dc00a00521009e007800808f5000faff3e008e
:1014ec001e007800104078000080fa000000060012
:1014fc000000fa005bff07000080fb000000e90021
:10150c004f00de00004078000080fa00000006006a
:10151c000000fa006eff07000080fb000000e900ed
:10152c004f00de00004078000080fa00000006004a
:10153c000000fa00101180000080fa000000060084
:10154c000000fa0062ff07000004e0001000320007
:10155c003180800020808000808f50000600360093
:10156c003080800080007800208080000080500057
:10157c000000e90007003700308080008000780010
:10158c00208080000080500068004000010037007f
:10159c000000eb000080fa00000006000000fa00da
:1015ac0030ff07000004e0001000320011808000c2
:1015bc0000808000808f5000060036001080800074
:1015cc008000780000808000008050000000e9005e
:1015dc0007003700108080008000780000808000b9
:1015ec000080500068004000010037000000eb0054
:1015fc000080fa00000006000000fa0021e2a800ba
:10160c002342a8000080fa00000006000000fa0047
:10161c0021e2a9002342a9000080fa000000060084
:10162c000000fa0023e8a90023c8a90080002000cc
:10163c00801188003222ef0000342000c011880095
:10164c00a0052100a0808800a005210090808800c2
:10165c0030062100808088003006210070808800d0
:10166c001670ef0020b620000700070000b820001d
:10167c001400070023c8a80031e2a8003342a800d8
:10168c000080fa00000006000200fa00000f78004b
:10169c001e0078000000e00003003a0020b6200095
:1016ac00c0808800020037001e007800c0808800cf
:1016bc000080fa00000006000000fa000080fa002a
:1016cc00000006000200fa00000f78001e007800ef
:1016dc000000e00003003a0000b82000d080880031
:1016ec00020037001e007800d08088000080fa00cd
:1016fc00000006000000fa000080fa00000006005e
:10170c000200fa000040eb00004f780000000000df
:10171c008180800070808000808f5000fcff320040
:10172c0080808000104f7800808080000000e800ee
:10173c008080880081808000c0062100808f50004e
:10174c0002003a0030062100808088001e4078009c
:10175c000080fa00000006000200fa00004f78003a
:10176c00000000001c0007000004a2000004e000c0
:10177c00fcff3a00908080001e487800908080002a
:10178c000000e800908088009180800030062100e5
:10179c00808f500002003a00a00521009080880044
:1017ac0023e8a8000080fa00000006000000fa0000
:1017bc0081808000708080000080680000f0a700ad
:1017cc000000ea000000ea004f00de000040780054
:1017dc000080fa00000006000400fa00a1808000de
:1017ec0011079800918080001e009000808f50009f
:1017fc00060031009e009000908080000080500018
:10180c000000e900000f7800050037009e009000f2
:10181c00908080000080500068004000000f78002d
:10182c001e00780000f0a7000000ea000000ea00ab
:10183c004f00de00004078000080fa000000060037
:10184c000000fa0091808000a0808000808f500002
:10185c0009003a0091118000001020000080600007
:10186c0000f0a7000000ea000000ea004f00de00d4
:10187c0000407800010037000040eb000080fa00c7
:10188c00000006000400fa00718080001107980027
:10189c00808080009e009000808f500006003100f8
:1018ac009e00900080808000008050006900400005
:1018bc00000f7800040037009e00900080808000ac
:1018cc0000805000000f7800f00f20009e00780080
:1018dc00808f50000200360000c0eb000200370081
:1018ec001e007800004078000080fa00000006001e
:1018fc000400fa00a18080001107980091808000fc
:10190c001e009000808f5000060031009e00900059
:10191c0090808000008050000000e900000f7800eb
:10192c00050037009e0090009080800000805000e1
:10193c0068004000000f7800f00f20009e00780037
:10194c00808f50000200360000c0eb000200370010
:10195c001e007800004078000080fa0000000600ad
:10196c000800fa002007980031079800c5ff07000f
:10197c000080fb00000f78003e0090009e0f50008e
:10198c0002003100be009000010f78000000eb0057
:10199c00100798000900370059ff0700ae009000af
:1019ac00804878002e0090000000e8002007980086
:1019bc001e0090000000e800100798001e00900028
:1019cc009e0f5000f4ff39001e0078000080fa00d2
:1019dc00000006000800fa00200798003107980064
:1019ec00c3ff07000080fb00000f78003e00900052
:1019fc009e0f500002003100be009000010f7800d5
:101a0c000000eb0010079800090037002e00900032
:101a1c0010407800ae0090008100e800210798008b
:101a2c004dff07001e0090000000e8001007980012
:101a3c001e0090009e0f5000f4ff39001e0078002d
:101a4c000080fa00000006000400fa000000eb0021
:101a5c00000f78008bff070020479800a4ff0700b9
:101a6c00304798002e4090000080fb000000e00002
:101a7c0003003200e90f500003003200040037006d
:101a8c001e20a000040037001e00a000020037003a
:101a9c001e10a000000000003e4090000080fb00e3
:101aac000000e00003003200e90f50000300320098
:101abc00040037001e30a000020037001e40a000ba
:101acc00000000001e0078000080fa0000000600f4
:101adc000400fa0010079800818080001e0090001e
:101aec00008f4000020037009e007800698f500084
:101afc00c00621009e007800808f5000faff3e0047
:101b0c001e007800104078000080fa0000000600eb
:101b1c000000fa005bff07000080fb000000e900fa
:101b2c004f00de00004078000080fa000000060044
:101b3c000000fa006eff07000080fb000000e900c7
:101b4c004f00de00004078000080fa000000060024
:101b5c000000fa00901180000080fa0000000600de
:101b6c000000fa0062ff07000004e00010003200e1
:101b7c00a180800090808000808f5000060036008d
:101b8c00a080800080007800908080000080500051
:101b9c000000e90007003700a0808000800078007a
:101bac0090808000008050006800400001003700e9
:101bbc000000eb000080fa00000006000000fa00b4
:101bcc0030ff07000004e00010003200818080002c
:101bdc0070808000808f500006003600808080006e
:101bec008000780070808000008050000000e900c8
:101bfc0007003700808080008000780070808000b3
:101c0c000080500068004000010037000000eb002d
:101c1c000080fa00000006000000fa0031e2a80083
:101c2c003342a8000080fa00000006000000fa0011
:101c3c0031e2a9003342a9000080fa00000006003e
:101c4c000e00fa0003000900001feb008e00b1002b
:101c5c006800470034c0b30063c0b30042c6b30091
:101c6c008e007800100007004e009000de009000ff
:101c7c006e019000200007006800470034c0b300dc
:101c8c0063c0b30042c6b3008e00780006000700a4
:101c9c004e009000de0090006e01900016000700d0
:101cac000080fa00000006000800fa00000f78001f
:101cbc0011079800424798005347980064479800d2
:101ccc001e007800ce409000014878001e0078007d
:101cdc00de409000114098001e0078009e0090009d
:101cec00110098001e007800ee40900041409800d2
:101cfc000080fa00000006001a00fa00200f98007d
:101d0c00310f9800420f9800e400470007000900cb
:101d1c008018eb002d4ea8004e50900040479800c4
:101d2c005e509000504798000040eb00004f780048
:101d3c00090037001e80fb000080e8003e0990007f
:101d4c009e80fb00810041009140780064004000bf
:101d5c00017778001e4fe8000e5890009e4f5000ff
:101d6c00f4ff3e000e58900080c0e800640047006d
:101d7c0026000700100798000e5890000080fb000a
:101d8c000080e8009e0090008140780064004000d4
:101d9c00017778000e5890000080fb006300400033
:101dac009e009000c808de0081407800640040006e
:101dbc00017778000040eb00004f780005003700f9
:101dcc001e80fb00640040006e40780062fe07003d
:101ddc001e4fe8009e80fb000e5890000080fb0018
:101dec0064004000808f5000f5ff350000000000bb
:101dfc0093fe07000004a2000004e000fcff3a0080
:101e0c002d4ea9000080fa00000006000800fa0020
:101e1c0020079800614798000080eb00000f7800c5
:101e2c00160037002e009000904078001e007800bd
:101e3c000040780000c06800204798002e009000f9
:101e4c000000e800200798001e0078004800de0023
:101e5c00000f78002e4090000080fb0080004000b6
:101e6c006060280000804000100078001e0f6800a1
:101e7c006e4090000040e900604798006e40900072
:101e8c000004e000e7ff3a001e0078000080fa0032
:101e9c00000006000000fa00003a80000080fa0002
:101eac00000006000200fa00faff0700000f78009d
:101ebc001e007800240007000004e000020032003d
:101ecc0000002800710007001e0078002a0007009f
:101edc000004e00002003200000024006b00070048
:101eec001e007800320007000004e00002003200ff
:101efc0000202000650007001e0078003a00070053
:101f0c000004e00002003200000820005f0007001f
:101f1c001e007800420007000004e00002003200be
:101f2c0000042000590007001e0078004a0007003a
:101f3c000004e00002003200000120005300070002
:101f4c000080fa00000006000400fa001007980058
:101f5c000040eb00004f78001e0090000000e000f5
:101f6c0002003d0010c0b300004f78001e40780006
:101f7c000080fa00000006000400fa001007980028
:101f8c000040eb00004f78009e0090000000240001
:101f9c00008060000000e0000200320010c0b300be
:101fac00004f78001e4078000080fa000000060008
:101fbc000400fa00100798000040eb00004f780076
:101fcc009e00900000202000008060000000e000d7
:101fdc000200320010c0b300004f78001e407800a1
:101fec000080fa00000006000400fa0010079800b8
:101ffc000040eb00004f78009e009000000820008d
:10200c00008060000000e0000200320010c0b3004d
:10201c00004f78001e4078000080fa000000060097
:10202c000400fa00100798000040eb00004f780005
:10203c009e00900000042000008060000000e00082
:10204c000200320010c0b300004f78001e40780030
:10205c000080fa00000006000400fa001007980047
:10206c000040eb00004f78001e00900070006000f4
:10207c000000e0000200320010c0b300004f7800f6
:10208c001e4078000080fa00000006000200fa00f2
:10209c00000f78009e80ea00003a8000008060000b
:1020ac00003a88000080fa00000006000000fa00e8
:1020bc004027ef000080fa00000006000000fa0044
:1020cc000021ef00f0cf2700100888000000280046
:1020dc0020088800108180000000e00002003a0017
:1020ec00c00b2100270007000068a9002068a80089
:1020fc00600721008040eb00014878000080fa0066
:10210c00000006000200fa00000f78009e00780024
:10211c0011088800600721008040eb00014878001e
:10212c000080fa00000006000000fa001008800091
:10213c000080fa00000006000200fa00000f780090
:10214c009e00780001088800600721008040eb00a9
:10215c00014878000080fa00000006000000fa0038
:10216c00000880000080fa00000006000000fa0061
:10217c00e08080000000e800e08088000080fa0029
:10218c00000006000200fa00000f78002068a90089
:10219c009e007800118188002068a8000080fa0059
:1021ac00000006000000fa00600721008040eb00f0
:1021bc00014878002068a80005e1a8000080fa001a
:1021cc00000006000000fa0005e1a9002068a90043
:1021dc000080fa00000006000200fa0060072100ef
:1021ec00104f78001e4078000004e000030032001d
:1021fc00600721008040eb00014878001e40780009
:10220c000080fa00000006000000fa0070072100b0
:10221c00104078000080fb000080fa0000000600ef
:10222c000000fa00700721008040eb0001487800a4
:10223c000080fa00000006000000fa000621ef0002
:10224c00f0f9200060088800000128008008880050
:10225c00308180000000e00002003a00a01721004d
:10226c002400070000e8a90020e8a800800721004e
:10227c008040eb00014878000080fa000000060066
:10228c000200fa00000f78009e00780061088800b8
:10229c00800721008040eb00014878000080fa00a4
:1022ac00000006000000fa00600880000080fa00c0
:1022bc00000006000200fa00000f78009e00780073
:1022cc0031088800800721008040eb00014878002d
:1022dc000080fa00000006000000fa0030088000c0
:1022ec000080fa00000006000000fa000080fa00ee
:1022fc00000006000200fa00000f780020e8a90098
:10230c009e0078003181880020e8a8000080fa0047
:10231c00000006000000fa00800721008040eb005e
:10232c000148780020e8a80011e1a8000080fa001c
:10233c00000006000000fa0011e1a90020e8a90045
:10234c000080fa00000006000200fa00800721005d
:10235c00104f78001e4078000004e00003003200ab
:10236c00800721008040eb00014878001e40780077
:10237c000080fa00000006000000fa00900721001f
:10238c00104078000080fb000080fa00000006007e
:10239c000000fa00900721008040eb000148780013
:1023ac000080fa00000006000000fa00042eef0086
:1023bc00182eef002c2eef00402eef00542eef00c5
:1023cc00682eef007c2eef0030f9210000708800a1
:1023dc00f0fe2f00a0708800d0b823004071880058
:1023ec0000162000e071880000002f008072880029
:1023fc003000200020738800002c2000c07388005f
:10240c000c2eef00202eef00342eef00482eef00a4
:10241c005c2eef00702eef00842eef000a2eef00e2
:10242c001e2eef00322eef00462eef005a2eef003c
:10243c006e2eef00822eef00062eef001a2eef000c
:10244c002e2eef00422eef00562eef006a2eef00dc
:10245c007e2eef0030e9210070708800703820006b
:10246c0010718800c0802000b071880000002f001f
:10247c00f0728800002c200030748800113a800023
:10248c00f00b20000081600060042000710520002a
:10249c0023742000804978008149780082497800b3
:1024ac0000c3b300c6e6b700d1338000f00f2c0098
:1024bc00808060000030200001007000d033880064
:1024cc0030c2b300c4e6b7009133800000fc2f008b
:1024dc00008060000000a00090338800103a80005b
:1024ec00000178000260a00060042000710520004b
:1024fc002374200080497800814978008249780053
:10250c000080fa00000006000000fa000143800081
:10251c00f08f2f00008060000080a0000043880036
:10252c0071428000f0ff28000080600000c0a00015
:10253c007042880071428000f08f2f000080600094
:10254c000080a0007042880031428000f0f82f001b
:10255c00008060000040a0003042880001438000f1
:10256c00f0f82f00008060000040a00000438800bd
:10257c003142800080ff2f00008060000000a0002e
:10258c003042880021428000f0ff2800008060006b
:10259c0000c0a0002042880011428000f0ff2800fb
:1025ac000080600000c0a000104288000142800042
:1025bc00f0ff28000080600000c0a00000428800ee
:0825cc000080fa000000060087
:020000040000fa
:1025d40020100000020000008000000076100000bf
:1025e4000200000080000000221000000200000031
:1025f400800000002810000020000000800000007f
:10260400241000000200000082000000ffff000010
:1026140048100000120000008000000000100000bc
:102624000e000000800000005a100000120000009c
:10263400800000000e1000000e000000800000006a
:102644007810000002000000800000002610000046
:10265400020000008000000072100000040000006e
:102664008200000000240000050000006c1000003f
:1026740006000000800000001c10000004000000a0
:082684008000000000000000ce
:020000040000fa
:10268c000000fa0000142300203a88004827ef00cd
:10269c004e27ef00e0032000303a88006027ef005f
:1026ac006227ef006427ef006627ef006a27ef0030
:1026bc006c27ef006e27ef0032002000800720000f
:1026cc00a1092000337420008049780081497800ea
:1026dc00824978001200200060042000710520005f
:1026ec002374200080497800814978008249780061
:1026fc0000000000103a8000610060000000e00063
:10270c00fcff3a0000000000113a8000000220009b
:10271c00008060000000e000fbff32000080fa0047
:10272c00000006000000fa00350007002d4ea9003d
:10273c0000ff0700e08080002003b000f0808800dc
:10274c0044c0b30063c0b30042c6b30021072100ec
:10275c00c006210054fd07000100370000000000f6
:10276c00e1808000f0808000008050000000e000dc
:10277c00faff3500e08080002003b000f080880074
:10278c006083800071838000828380005afd070083
:10279c00607180004500de00614060000004a20012
:1027ac00614060000080fb00610060004500dd00be
:1027bc00617180000150a1000100700060718800ff
:1027cc00e7ff37000200fa00000f780021028000ba
:1027dc00200f2000008060001e0070002002880086
:1027ec000080fa00000006000000fa00c3e8a80010
:1027fc0000000000000000000080fa00000006004d
:10280c000000fa00e8fe07009dff07003eff0700ee
:10281c0083fb0700faf907000700070086fe070094
:10282c0026fe0700f0ff070000022000e5ff07006e
:10283c000080fa00000006000000fa0040002800aa
:10284c00001988002223ef00901020002019880026
:10285c002823ef0080002000701988003023ef003f
:10286c003223ef002623ef0040442100060007002e
:10287c0021a8a8000080fa00000006000000fa0061
:10288c000080fa00000006000200fa00000f780039
:10289c001e007800008188000080fa00000006000d
:1028ac000000fa0076ff07000080fa000000060026
:1028bc000000fa00003a80000080fa0000000600d8
:1028cc000000fa0077fd07000080fa000000060007
:1028dc000000fa00f5fd07000080fa000000060079
:1028ec00000f78009e00780021818800ffff3700e0
:1028fc000000fa008002210080077800000421000b
:0c290c00000188000080fa0000000600b6
:020000040000fa
:020000040005f5
:04570000ffff0000a7
:020000040000fa
:020000040005f5
:04572000ffff000087
:020000040000fa
:020000040005f5
:04573000f8ff00007e
:020000040000fa
:020000040005f5
:045738007aff0000f4
:020000040000fa
:020000040005f5
:045740009fff0000c7
:020000040000fa
:020000040005f5
:04574800ffff00005f
:020000040000fa
:020000040005f5
:04575000feff000058
:020000040000fa
:020000040005f5
:04575800000000004d
:020000040000fa
:020000040005f5
:045760000000000045
:020000040000fa
:020000040005f5
:04576800000000003d
:020000040000fa
:020000040005f5
:045770000000000035
:020000040000fa
:020000040005f5
:04577800feff000030
:020000040000fa
:020000040005f5
:04578000ffff000027
:020000040000fa
:020000040005f5
:04578800ffff00001f
:00000001FF
